:10C00000314000043C4002020D433E400400B012A7
:10C010004CC13C4000023D406EC10D9C04243E409A
:10C020000200B01210C10C43B01230C0B0120EC1E9
:10C03000F2D041002200F2F0BFFF2100D2D3210054
:10C04000B012B2C0B012D0C07C401800B012FEC016
:10C050004C4330410E120D120C121D4204021D53AE
:10C06000824D04021C4200020D9C123882430402DD
:10C07000F2D0400021001D4202021D537E40F90013
:10C080000E9D0A38824D02023C413D413E41001363
:10C09000F2F0BFFF2100EF3F824302021C537D40BC
:10C0A00007000D9C0338824C0002EE3F82430002E1
:10C0B000EB3FB240805A2001D242F9105700D242E1
:10C0C000F8105600F2C25800F2D006005800304175
:10C0D000B240195A2001D2D300003041824372018C
:10C0E00082437401B24060006401B24010026001FA
:10C0F00030410343024C034330410C42304103437F
:10C1000002DC03433041034302FC03433041FF3F61
:10C110000A1209120F4D0F5E0D9C022C0C9F07286E
:10C120000E4C0D9F0A24FE4D00001E53FA3F094E8F
:10C1300039E34D433D53099D0120163C0B4E0B5DE9
:10C140000B5C0A4F0A5DEB4A0000F43F0E5C0F4C9B
:10C150000F9E012030411F53CF4DFFFFF93F344167
:0EC16000354136413741384139413A4130418D
:02C16E000500CA
:02FFF40054C0F7
:02FFFE0000C041
:040000030000C00039
:00000001FF
