:10C00000314000040C43B01238C0B012B0C0B012BE
:10C010007EC0F2F03F004200F2F07F002E00F2D02E
:10C0200040002E00F24040002A003041824C720154
:10C030000C11824C74013041B01254C0B0120EC0C9
:10C040003C40E803B0122CC07C401800B012A0C0E5
:10C050004C433041B240805A2001D242F91057007F
:10C06000D242F8105600F2C25800F2D00600580032
:10C070003041B240195A2001D2D3000030418243EE
:10C08000720182437401B24060006401B240100248
:10C09000600130410343024C034330410C423041C4
:10C0A000034302DC03433041034302FC03433041BA
:02C0B000FF3F50
:02FFFE0000C041
:040000030000C00039
:00000001FF
