:10C00000314000043C4000020D433E400200B012AB
:10C01000C6C00C43B0121CC0B012C4C0F2D0410064
:10C020002200F2F0BFFF2100D2D32100B01268C07D
:10C03000B01286C07C401800B012B4C04C433041EE
:10C040000D120C121C4200021C537D40F9000D9C85
:10C050000538824C00023C413D41001382430002FE
:10C06000F2E040002100F73FB240805A2001D24266
:10C07000F9105700D242F8105600F2C25800F2D020
:10C08000060058003041B240195A2001D2D30000B6
:10C0900030418243720182437401B2406000640106
:10C0A000B2401002600130410343024C034330416F
:10C0B0000C423041034302DC03433041034302FCA2
:10C0C00003433041FF3F0E5C0F4C0F9E0120304177
:08C0D0001F53CF4DFFFFF93FA4
:02FFF40040C00B
:02FFFE0000C041
:040000030000C00039
:00000001FF
