:10C00000314000043C4000020D433E400400B012A9
:10C010003EC10C43B01246C0B0123CC1F2D2270060
:10C02000F2D22500F2D22100F2C222003041F2D039
:10C0300041002200F2F0BEFF21003041B012E0C00A
:10C04000B012FEC03041B0121CC0B0122EC0B012EF
:10C050003CC07C401800B0122CC130415D42200031
:10C060005C4220008C114E4C7EF2C2DE24007CD05B
:10C07000F7FFC2FC24003DB20624F2F0BFFF21000E
:10C08000824302023041F2D040002100924302027A
:10C09000F93F0F120E120D120C120B12F2B2230006
:10C0A0000424F2C22300B0125CC03B413C413D413C
:10C0B0003E413F4100130C121C4200023C9006001E
:10C0C000062082430002D2D321003C4100131C53BE
:10C0D000824C000282930202F823D2C32100F53F72
:10C0E000B240805A2001D242F9105700D242F810D3
:10C0F0005600F2C25800F2D0060058003041B2405B
:10C10000195A2001D2D30000304182437201824388
:10C110007401B24060006401B2401002600130411D
:10C120000343024C034330410C423041034302DCE1
:10C1300003433041034302FC03433041FF3F0E5CA5
:10C140000F4C0F9E012030411F53CF4DFFFFF93F91
:02FFE40092C0C9
:02FFF400B6C095
:02FFFE0000C041
:040000030000C00039
:00000001FF
